{
  "_format": "hh-sol-artifact-1",
  "contractName": "OptimismMintableERC20",
  "sourceName": "src/universal/OptimismMintableERC20.sol",
  "abi": [
    {
      "inputs": [
        {
          "internalType": "address",
          "name": "_bridge",
          "type": "address"
        },
        {
          "internalType": "address",
          "name": "_remoteToken",
          "type": "address"
        },
        {
          "internalType": "string",
          "name": "_name",
          "type": "string"
        },
        {
          "internalType": "string",
          "name": "_symbol",
          "type": "string"
        },
        {
          "internalType": "uint8",
          "name": "_decimals",
          "type": "uint8"
        }
      ],
      "stateMutability": "nonpayable",
      "type": "constructor"
    },
    {
      "anonymous": false,
      "inputs": [
        {
          "indexed": true,
          "internalType": "address",
          "name": "owner",
          "type": "address"
        },
        {
          "indexed": true,
          "internalType": "address",
          "name": "spender",
          "type": "address"
        },
        {
          "indexed": false,
          "internalType": "uint256",
          "name": "value",
          "type": "uint256"
        }
      ],
      "name": "Approval",
      "type": "event"
    },
    {
      "anonymous": false,
      "inputs": [
        {
          "indexed": true,
          "internalType": "address",
          "name": "account",
          "type": "address"
        },
        {
          "indexed": false,
          "internalType": "uint256",
          "name": "amount",
          "type": "uint256"
        }
      ],
      "name": "Burn",
      "type": "event"
    },
    {
      "anonymous": false,
      "inputs": [
        {
          "indexed": true,
          "internalType": "address",
          "name": "account",
          "type": "address"
        },
        {
          "indexed": false,
          "internalType": "uint256",
          "name": "amount",
          "type": "uint256"
        }
      ],
      "name": "Mint",
      "type": "event"
    },
    {
      "anonymous": false,
      "inputs": [
        {
          "indexed": true,
          "internalType": "address",
          "name": "from",
          "type": "address"
        },
        {
          "indexed": true,
          "internalType": "address",
          "name": "to",
          "type": "address"
        },
        {
          "indexed": false,
          "internalType": "uint256",
          "name": "value",
          "type": "uint256"
        }
      ],
      "name": "Transfer",
      "type": "event"
    },
    {
      "inputs": [],
      "name": "BRIDGE",
      "outputs": [
        {
          "internalType": "address",
          "name": "",
          "type": "address"
        }
      ],
      "stateMutability": "view",
      "type": "function"
    },
    {
      "inputs": [],
      "name": "REMOTE_TOKEN",
      "outputs": [
        {
          "internalType": "address",
          "name": "",
          "type": "address"
        }
      ],
      "stateMutability": "view",
      "type": "function"
    },
    {
      "inputs": [
        {
          "internalType": "address",
          "name": "owner",
          "type": "address"
        },
        {
          "internalType": "address",
          "name": "spender",
          "type": "address"
        }
      ],
      "name": "allowance",
      "outputs": [
        {
          "internalType": "uint256",
          "name": "",
          "type": "uint256"
        }
      ],
      "stateMutability": "view",
      "type": "function"
    },
    {
      "inputs": [
        {
          "internalType": "address",
          "name": "spender",
          "type": "address"
        },
        {
          "internalType": "uint256",
          "name": "amount",
          "type": "uint256"
        }
      ],
      "name": "approve",
      "outputs": [
        {
          "internalType": "bool",
          "name": "",
          "type": "bool"
        }
      ],
      "stateMutability": "nonpayable",
      "type": "function"
    },
    {
      "inputs": [
        {
          "internalType": "address",
          "name": "account",
          "type": "address"
        }
      ],
      "name": "balanceOf",
      "outputs": [
        {
          "internalType": "uint256",
          "name": "",
          "type": "uint256"
        }
      ],
      "stateMutability": "view",
      "type": "function"
    },
    {
      "inputs": [],
      "name": "bridge",
      "outputs": [
        {
          "internalType": "address",
          "name": "",
          "type": "address"
        }
      ],
      "stateMutability": "view",
      "type": "function"
    },
    {
      "inputs": [
        {
          "internalType": "address",
          "name": "_from",
          "type": "address"
        },
        {
          "internalType": "uint256",
          "name": "_amount",
          "type": "uint256"
        }
      ],
      "name": "burn",
      "outputs": [],
      "stateMutability": "nonpayable",
      "type": "function"
    },
    {
      "inputs": [],
      "name": "decimals",
      "outputs": [
        {
          "internalType": "uint8",
          "name": "",
          "type": "uint8"
        }
      ],
      "stateMutability": "view",
      "type": "function"
    },
    {
      "inputs": [
        {
          "internalType": "address",
          "name": "spender",
          "type": "address"
        },
        {
          "internalType": "uint256",
          "name": "subtractedValue",
          "type": "uint256"
        }
      ],
      "name": "decreaseAllowance",
      "outputs": [
        {
          "internalType": "bool",
          "name": "",
          "type": "bool"
        }
      ],
      "stateMutability": "nonpayable",
      "type": "function"
    },
    {
      "inputs": [
        {
          "internalType": "address",
          "name": "spender",
          "type": "address"
        },
        {
          "internalType": "uint256",
          "name": "addedValue",
          "type": "uint256"
        }
      ],
      "name": "increaseAllowance",
      "outputs": [
        {
          "internalType": "bool",
          "name": "",
          "type": "bool"
        }
      ],
      "stateMutability": "nonpayable",
      "type": "function"
    },
    {
      "inputs": [],
      "name": "l1Token",
      "outputs": [
        {
          "internalType": "address",
          "name": "",
          "type": "address"
        }
      ],
      "stateMutability": "view",
      "type": "function"
    },
    {
      "inputs": [],
      "name": "l2Bridge",
      "outputs": [
        {
          "internalType": "address",
          "name": "",
          "type": "address"
        }
      ],
      "stateMutability": "view",
      "type": "function"
    },
    {
      "inputs": [
        {
          "internalType": "address",
          "name": "_to",
          "type": "address"
        },
        {
          "internalType": "uint256",
          "name": "_amount",
          "type": "uint256"
        }
      ],
      "name": "mint",
      "outputs": [],
      "stateMutability": "nonpayable",
      "type": "function"
    },
    {
      "inputs": [],
      "name": "name",
      "outputs": [
        {
          "internalType": "string",
          "name": "",
          "type": "string"
        }
      ],
      "stateMutability": "view",
      "type": "function"
    },
    {
      "inputs": [],
      "name": "remoteToken",
      "outputs": [
        {
          "internalType": "address",
          "name": "",
          "type": "address"
        }
      ],
      "stateMutability": "view",
      "type": "function"
    },
    {
      "inputs": [
        {
          "internalType": "bytes4",
          "name": "_interfaceId",
          "type": "bytes4"
        }
      ],
      "name": "supportsInterface",
      "outputs": [
        {
          "internalType": "bool",
          "name": "",
          "type": "bool"
        }
      ],
      "stateMutability": "pure",
      "type": "function"
    },
    {
      "inputs": [],
      "name": "symbol",
      "outputs": [
        {
          "internalType": "string",
          "name": "",
          "type": "string"
        }
      ],
      "stateMutability": "view",
      "type": "function"
    },
    {
      "inputs": [],
      "name": "totalSupply",
      "outputs": [
        {
          "internalType": "uint256",
          "name": "",
          "type": "uint256"
        }
      ],
      "stateMutability": "view",
      "type": "function"
    },
    {
      "inputs": [
        {
          "internalType": "address",
          "name": "to",
          "type": "address"
        },
        {
          "internalType": "uint256",
          "name": "amount",
          "type": "uint256"
        }
      ],
      "name": "transfer",
      "outputs": [
        {
          "internalType": "bool",
          "name": "",
          "type": "bool"
        }
      ],
      "stateMutability": "nonpayable",
      "type": "function"
    },
    {
      "inputs": [
        {
          "internalType": "address",
          "name": "from",
          "type": "address"
        },
        {
          "internalType": "address",
          "name": "to",
          "type": "address"
        },
        {
          "internalType": "uint256",
          "name": "amount",
          "type": "uint256"
        }
      ],
      "name": "transferFrom",
      "outputs": [
        {
          "internalType": "bool",
          "name": "",
          "type": "bool"
        }
      ],
      "stateMutability": "nonpayable",
      "type": "function"
    },
    {
      "inputs": [],
      "name": "version",
      "outputs": [
        {
          "internalType": "string",
          "name": "",
          "type": "string"
        }
      ],
      "stateMutability": "view",
      "type": "function"
    }
  ],
  "bytecode": "0x6101406040523480156200001257600080fd5b5060405162002a4a38038062002a4a833981810160405281019062000038919062000344565b6001600260018585816003908162000051919062000655565b50806004908162000063919062000655565b50505082608081815250508160a081815250508060c081815250505050508373ffffffffffffffffffffffffffffffffffffffff1660e08173ffffffffffffffffffffffffffffffffffffffff16815250508473ffffffffffffffffffffffffffffffffffffffff166101008173ffffffffffffffffffffffffffffffffffffffff16815250508060ff166101208160ff168152505050505050506200073c565b6000604051905090565b600080fd5b600080fd5b600073ffffffffffffffffffffffffffffffffffffffff82169050919050565b6000620001458262000118565b9050919050565b620001578162000138565b81146200016357600080fd5b50565b60008151905062000177816200014c565b92915050565b600080fd5b600080fd5b6000601f19601f8301169050919050565b7f4e487b7100000000000000000000000000000000000000000000000000000000600052604160045260246000fd5b620001d28262000187565b810181811067ffffffffffffffff82111715620001f457620001f362000198565b5b80604052505050565b60006200020962000104565b9050620002178282620001c7565b919050565b600067ffffffffffffffff8211156200023a576200023962000198565b5b620002458262000187565b9050602081019050919050565b60005b838110156200027257808201518184015260208101905062000255565b8381111562000282576000848401525b50505050565b60006200029f62000299846200021c565b620001fd565b905082815260208101848484011115620002be57620002bd62000182565b5b620002cb84828562000252565b509392505050565b600082601f830112620002eb57620002ea6200017d565b5b8151620002fd84826020860162000288565b91505092915050565b600060ff82169050919050565b6200031e8162000306565b81146200032a57600080fd5b50565b6000815190506200033e8162000313565b92915050565b600080600080600060a086880312156200036357620003626200010e565b5b6000620003738882890162000166565b9550506020620003868882890162000166565b945050604086015167ffffffffffffffff811115620003aa57620003a962000113565b5b620003b888828901620002d3565b935050606086015167ffffffffffffffff811115620003dc57620003db62000113565b5b620003ea88828901620002d3565b9250506080620003fd888289016200032d565b9150509295509295909350565b600081519050919050565b7f4e487b7100000000000000000000000000000000000000000000000000000000600052602260045260246000fd5b600060028204905060018216806200045d57607f821691505b60208210810362000473576200047262000415565b5b50919050565b60008190508160005260206000209050919050565b60006020601f8301049050919050565b600082821b905092915050565b600060088302620004dd7fffffffffffffffffffffffffffffffffffffffffffffffffffffffffffffffff826200049e565b620004e986836200049e565b95508019841693508086168417925050509392505050565b6000819050919050565b6000819050919050565b600062000536620005306200052a8462000501565b6200050b565b62000501565b9050919050565b6000819050919050565b620005528362000515565b6200056a62000561826200053d565b848454620004ab565b825550505050565b600090565b6200058162000572565b6200058e81848462000547565b505050565b5b81811015620005b657620005aa60008262000577565b60018101905062000594565b5050565b601f8211156200060557620005cf8162000479565b620005da846200048e565b81016020851015620005ea578190505b62000602620005f9856200048e565b83018262000593565b50505b505050565b600082821c905092915050565b60006200062a600019846008026200060a565b1980831691505092915050565b600062000645838362000617565b9150826002028217905092915050565b62000660826200040a565b67ffffffffffffffff8111156200067c576200067b62000198565b5b62000688825462000444565b62000695828285620005ba565b600060209050601f831160018114620006cd5760008415620006b8578287015190505b620006c4858262000637565b86555062000734565b601f198416620006dd8662000479565b60005b828110156200070757848901518255600182019150602085019450602081019050620006e0565b8683101562000727578489015162000723601f89168262000617565b8355505b6001600288020188555050505b505050505050565b60805160a05160c05160e0516101005161012051612294620007b6600039600061069f0152600081816106fc0152818161096301528181610ae901528181610be80152610c0e01526000818161058b01528181610b110152610b390152600061083d01526000610814015260006107eb01526122946000f3fe608060405234801561001057600080fd5b50600436106101375760003560e01c806370a08231116100b8578063ae1f6aaf1161007c578063ae1f6aaf14610378578063c01e1bd614610396578063d6c0b2c4146103b4578063dd62ed3e146103d2578063e78cea9214610402578063ee9a31a21461042057610137565b806370a08231146102ae57806395d89b41146102de5780639dc29fac146102fc578063a457c2d714610318578063a9059cbb1461034857610137565b806323b872dd116100ff57806323b872dd146101f6578063313ce56714610226578063395093511461024457806340c10f191461027457806354fd4d501461029057610137565b806301ffc9a71461013c578063033964be1461016c57806306fdde031461018a578063095ea7b3146101a857806318160ddd146101d8575b600080fd5b61015660048036038101906101519190611608565b61043e565b6040516101639190611650565b60405180910390f35b610174610589565b60405161018191906116ac565b60405180910390f35b6101926105ad565b60405161019f9190611760565b60405180910390f35b6101c260048036038101906101bd91906117e4565b61063f565b6040516101cf9190611650565b60405180910390f35b6101e0610662565b6040516101ed9190611833565b60405180910390f35b610210600480360381019061020b919061184e565b61066c565b60405161021d9190611650565b60405180910390f35b61022e61069b565b60405161023b91906118bd565b60405180910390f35b61025e600480360381019061025991906117e4565b6106c3565b60405161026b9190611650565b60405180910390f35b61028e600480360381019061028991906117e4565b6106fa565b005b6102986107e4565b6040516102a59190611760565b60405180910390f35b6102c860048036038101906102c391906118d8565b610887565b6040516102d59190611833565b60405180910390f35b6102e66108cf565b6040516102f39190611760565b60405180910390f35b610316600480360381019061031191906117e4565b610961565b005b610332600480360381019061032d91906117e4565b610a4b565b60405161033f9190611650565b60405180910390f35b610362600480360381019061035d91906117e4565b610ac2565b60405161036f9190611650565b60405180910390f35b610380610ae5565b60405161038d91906116ac565b60405180910390f35b61039e610b0d565b6040516103ab91906116ac565b60405180910390f35b6103bc610b35565b6040516103c991906116ac565b60405180910390f35b6103ec60048036038101906103e79190611905565b610b5d565b6040516103f99190611833565b60405180910390f35b61040a610be4565b60405161041791906116ac565b60405180910390f35b610428610c0c565b60405161043591906116ac565b60405180910390f35b6000807f01ffc9a700000000000000000000000000000000000000000000000000000000905060007f1d1d8b6300000000000000000000000000000000000000000000000000000000905060007fec4fc8e3000000000000000000000000000000000000000000000000000000009050827bffffffffffffffffffffffffffffffffffffffffffffffffffffffff1916857bffffffffffffffffffffffffffffffffffffffffffffffffffffffff191614806105375750817bffffffffffffffffffffffffffffffffffffffffffffffffffffffff1916857bffffffffffffffffffffffffffffffffffffffffffffffffffffffff1916145b8061057f5750807bffffffffffffffffffffffffffffffffffffffffffffffffffffffff1916857bffffffffffffffffffffffffffffffffffffffffffffffffffffffff1916145b9350505050919050565b7f000000000000000000000000000000000000000000000000000000000000000081565b6060600380546105bc90611974565b80601f01602080910402602001604051908101604052809291908181526020018280546105e890611974565b80156106355780601f1061060a57610100808354040283529160200191610635565b820191906000526020600020905b81548152906001019060200180831161061857829003601f168201915b5050505050905090565b60008061064a610c30565b9050610657818585610c38565b600191505092915050565b6000600254905090565b600080610677610c30565b9050610684858285610e01565b61068f858585610e8d565b60019150509392505050565b60007f0000000000000000000000000000000000000000000000000000000000000000905090565b6000806106ce610c30565b90506106ef8185856106e08589610b5d565b6106ea91906119d4565b610c38565b600191505092915050565b7f000000000000000000000000000000000000000000000000000000000000000073ffffffffffffffffffffffffffffffffffffffff163373ffffffffffffffffffffffffffffffffffffffff1614610788576040517f08c379a000000000000000000000000000000000000000000000000000000000815260040161077f90611a9c565b60405180910390fd5b610792828261110c565b8173ffffffffffffffffffffffffffffffffffffffff167f0f6798a560793a54c3bcfe86a93cde1e73087d944c0ea20544137d4121396885826040516107d89190611833565b60405180910390a25050565b606061080f7f000000000000000000000000000000000000000000000000000000000000000061126b565b6108387f000000000000000000000000000000000000000000000000000000000000000061126b565b6108617f000000000000000000000000000000000000000000000000000000000000000061126b565b60405160200161087393929190611b44565b604051602081830303815290604052905090565b60008060008373ffffffffffffffffffffffffffffffffffffffff1673ffffffffffffffffffffffffffffffffffffffff168152602001908152602001600020549050919050565b6060600480546108de90611974565b80601f016020809104026020016040519081016040528092919081815260200182805461090a90611974565b80156109575780601f1061092c57610100808354040283529160200191610957565b820191906000526020600020905b81548152906001019060200180831161093a57829003601f168201915b5050505050905090565b7f000000000000000000000000000000000000000000000000000000000000000073ffffffffffffffffffffffffffffffffffffffff163373ffffffffffffffffffffffffffffffffffffffff16146109ef576040517f08c379a00000000000000000000000000000000000000000000000000000000081526004016109e690611a9c565b60405180910390fd5b6109f982826113cb565b8173ffffffffffffffffffffffffffffffffffffffff167fcc16f5dbb4873280815c1ee09dbd06736cffcc184412cf7a71a0fdb75d397ca582604051610a3f9190611833565b60405180910390a25050565b600080610a56610c30565b90506000610a648286610b5d565b905083811015610aa9576040517f08c379a0000000000000000000000000000000000000000000000000000000008152600401610aa090611bfd565b60405180910390fd5b610ab68286868403610c38565b60019250505092915050565b600080610acd610c30565b9050610ada818585610e8d565b600191505092915050565b60007f0000000000000000000000000000000000000000000000000000000000000000905090565b60007f0000000000000000000000000000000000000000000000000000000000000000905090565b60007f0000000000000000000000000000000000000000000000000000000000000000905090565b6000600160008473ffffffffffffffffffffffffffffffffffffffff1673ffffffffffffffffffffffffffffffffffffffff16815260200190815260200160002060008373ffffffffffffffffffffffffffffffffffffffff1673ffffffffffffffffffffffffffffffffffffffff16815260200190815260200160002054905092915050565b60007f0000000000000000000000000000000000000000000000000000000000000000905090565b7f000000000000000000000000000000000000000000000000000000000000000081565b600033905090565b600073ffffffffffffffffffffffffffffffffffffffff168373ffffffffffffffffffffffffffffffffffffffff1603610ca7576040517f08c379a0000000000000000000000000000000000000000000000000000000008152600401610c9e90611c8f565b60405180910390fd5b600073ffffffffffffffffffffffffffffffffffffffff168273ffffffffffffffffffffffffffffffffffffffff1603610d16576040517f08c379a0000000000000000000000000000000000000000000000000000000008152600401610d0d90611d21565b60405180910390fd5b80600160008573ffffffffffffffffffffffffffffffffffffffff1673ffffffffffffffffffffffffffffffffffffffff16815260200190815260200160002060008473ffffffffffffffffffffffffffffffffffffffff1673ffffffffffffffffffffffffffffffffffffffff168152602001908152602001600020819055508173ffffffffffffffffffffffffffffffffffffffff168373ffffffffffffffffffffffffffffffffffffffff167f8c5be1e5ebec7d5bd14f71427d1e84f3dd0314c0f7b2291e5b200ac8c7c3b92583604051610df49190611833565b60405180910390a3505050565b6000610e0d8484610b5d565b90507fffffffffffffffffffffffffffffffffffffffffffffffffffffffffffffffff8114610e875781811015610e79576040517f08c379a0000000000000000000000000000000000000000000000000000000008152600401610e7090611d8d565b60405180910390fd5b610e868484848403610c38565b5b50505050565b600073ffffffffffffffffffffffffffffffffffffffff168373ffffffffffffffffffffffffffffffffffffffff1603610efc576040517f08c379a0000000000000000000000000000000000000000000000000000000008152600401610ef390611e1f565b60405180910390fd5b600073ffffffffffffffffffffffffffffffffffffffff168273ffffffffffffffffffffffffffffffffffffffff1603610f6b576040517f08c379a0000000000000000000000000000000000000000000000000000000008152600401610f6290611eb1565b60405180910390fd5b610f768383836115a1565b60008060008573ffffffffffffffffffffffffffffffffffffffff1673ffffffffffffffffffffffffffffffffffffffff16815260200190815260200160002054905081811015610ffc576040517f08c379a0000000000000000000000000000000000000000000000000000000008152600401610ff390611f43565b60405180910390fd5b8181036000808673ffffffffffffffffffffffffffffffffffffffff1673ffffffffffffffffffffffffffffffffffffffff16815260200190815260200160002081905550816000808573ffffffffffffffffffffffffffffffffffffffff1673ffffffffffffffffffffffffffffffffffffffff168152602001908152602001600020600082825461108f91906119d4565b925050819055508273ffffffffffffffffffffffffffffffffffffffff168473ffffffffffffffffffffffffffffffffffffffff167fddf252ad1be2c89b69c2b068fc378daa952ba7f163c4a11628f55a4df523b3ef846040516110f39190611833565b60405180910390a36111068484846115a6565b50505050565b600073ffffffffffffffffffffffffffffffffffffffff168273ffffffffffffffffffffffffffffffffffffffff160361117b576040517f08c379a000000000000000000000000000000000000000000000000000000000815260040161117290611faf565b60405180910390fd5b611187600083836115a1565b806002600082825461119991906119d4565b92505081905550806000808473ffffffffffffffffffffffffffffffffffffffff1673ffffffffffffffffffffffffffffffffffffffff16815260200190815260200160002060008282546111ee91906119d4565b925050819055508173ffffffffffffffffffffffffffffffffffffffff16600073ffffffffffffffffffffffffffffffffffffffff167fddf252ad1be2c89b69c2b068fc378daa952ba7f163c4a11628f55a4df523b3ef836040516112539190611833565b60405180910390a3611267600083836115a6565b5050565b6060600082036112b2576040518060400160405280600181526020017f300000000000000000000000000000000000000000000000000000000000000081525090506113c6565b600082905060005b600082146112e45780806112cd90611fcf565b915050600a826112dd9190612046565b91506112ba565b60008167ffffffffffffffff811115611300576112ff612077565b5b6040519080825280601f01601f1916602001820160405280156113325781602001600182028036833780820191505090505b5090505b600085146113bf5760018261134b91906120a6565b9150600a8561135a91906120da565b603061136691906119d4565b60f81b81838151811061137c5761137b61210b565b5b60200101907effffffffffffffffffffffffffffffffffffffffffffffffffffffffffffff1916908160001a905350600a856113b89190612046565b9450611336565b8093505050505b919050565b600073ffffffffffffffffffffffffffffffffffffffff168273ffffffffffffffffffffffffffffffffffffffff160361143a576040517f08c379a0000000000000000000000000000000000000000000000000000000008152600401611431906121ac565b60405180910390fd5b611446826000836115a1565b60008060008473ffffffffffffffffffffffffffffffffffffffff1673ffffffffffffffffffffffffffffffffffffffff168152602001908152602001600020549050818110156114cc576040517f08c379a00000000000000000000000000000000000000000000000000000000081526004016114c39061223e565b60405180910390fd5b8181036000808573ffffffffffffffffffffffffffffffffffffffff1673ffffffffffffffffffffffffffffffffffffffff16815260200190815260200160002081905550816002600082825461152391906120a6565b92505081905550600073ffffffffffffffffffffffffffffffffffffffff168373ffffffffffffffffffffffffffffffffffffffff167fddf252ad1be2c89b69c2b068fc378daa952ba7f163c4a11628f55a4df523b3ef846040516115889190611833565b60405180910390a361159c836000846115a6565b505050565b505050565b505050565b600080fd5b60007fffffffff0000000000000000000000000000000000000000000000000000000082169050919050565b6115e5816115b0565b81146115f057600080fd5b50565b600081359050611602816115dc565b92915050565b60006020828403121561161e5761161d6115ab565b5b600061162c848285016115f3565b91505092915050565b60008115159050919050565b61164a81611635565b82525050565b60006020820190506116656000830184611641565b92915050565b600073ffffffffffffffffffffffffffffffffffffffff82169050919050565b60006116968261166b565b9050919050565b6116a68161168b565b82525050565b60006020820190506116c1600083018461169d565b92915050565b600081519050919050565b600082825260208201905092915050565b60005b838110156117015780820151818401526020810190506116e6565b83811115611710576000848401525b50505050565b6000601f19601f8301169050919050565b6000611732826116c7565b61173c81856116d2565b935061174c8185602086016116e3565b61175581611716565b840191505092915050565b6000602082019050818103600083015261177a8184611727565b905092915050565b61178b8161168b565b811461179657600080fd5b50565b6000813590506117a881611782565b92915050565b6000819050919050565b6117c1816117ae565b81146117cc57600080fd5b50565b6000813590506117de816117b8565b92915050565b600080604083850312156117fb576117fa6115ab565b5b600061180985828601611799565b925050602061181a858286016117cf565b9150509250929050565b61182d816117ae565b82525050565b60006020820190506118486000830184611824565b92915050565b600080600060608486031215611867576118666115ab565b5b600061187586828701611799565b935050602061188686828701611799565b9250506040611897868287016117cf565b9150509250925092565b600060ff82169050919050565b6118b7816118a1565b82525050565b60006020820190506118d260008301846118ae565b92915050565b6000602082840312156118ee576118ed6115ab565b5b60006118fc84828501611799565b91505092915050565b6000806040838503121561191c5761191b6115ab565b5b600061192a85828601611799565b925050602061193b85828601611799565b9150509250929050565b7f4e487b7100000000000000000000000000000000000000000000000000000000600052602260045260246000fd5b6000600282049050600182168061198c57607f821691505b60208210810361199f5761199e611945565b5b50919050565b7f4e487b7100000000000000000000000000000000000000000000000000000000600052601160045260246000fd5b60006119df826117ae565b91506119ea836117ae565b9250827fffffffffffffffffffffffffffffffffffffffffffffffffffffffffffffffff03821115611a1f57611a1e6119a5565b5b828201905092915050565b7f4f7074696d69736d4d696e7461626c6545524332303a206f6e6c79206272696460008201527f67652063616e206d696e7420616e64206275726e000000000000000000000000602082015250565b6000611a866034836116d2565b9150611a9182611a2a565b604082019050919050565b60006020820190508181036000830152611ab581611a79565b9050919050565b600081905092915050565b6000611ad2826116c7565b611adc8185611abc565b9350611aec8185602086016116e3565b80840191505092915050565b7f2e00000000000000000000000000000000000000000000000000000000000000600082015250565b6000611b2e600183611abc565b9150611b3982611af8565b600182019050919050565b6000611b508286611ac7565b9150611b5b82611b21565b9150611b678285611ac7565b9150611b7282611b21565b9150611b7e8284611ac7565b9150819050949350505050565b7f45524332303a2064656372656173656420616c6c6f77616e63652062656c6f7760008201527f207a65726f000000000000000000000000000000000000000000000000000000602082015250565b6000611be76025836116d2565b9150611bf282611b8b565b604082019050919050565b60006020820190508181036000830152611c1681611bda565b9050919050565b7f45524332303a20617070726f76652066726f6d20746865207a65726f2061646460008201527f7265737300000000000000000000000000000000000000000000000000000000602082015250565b6000611c796024836116d2565b9150611c8482611c1d565b604082019050919050565b60006020820190508181036000830152611ca881611c6c565b9050919050565b7f45524332303a20617070726f766520746f20746865207a65726f20616464726560008201527f7373000000000000000000000000000000000000000000000000000000000000602082015250565b6000611d0b6022836116d2565b9150611d1682611caf565b604082019050919050565b60006020820190508181036000830152611d3a81611cfe565b9050919050565b7f45524332303a20696e73756666696369656e7420616c6c6f77616e6365000000600082015250565b6000611d77601d836116d2565b9150611d8282611d41565b602082019050919050565b60006020820190508181036000830152611da681611d6a565b9050919050565b7f45524332303a207472616e736665722066726f6d20746865207a65726f20616460008201527f6472657373000000000000000000000000000000000000000000000000000000602082015250565b6000611e096025836116d2565b9150611e1482611dad565b604082019050919050565b60006020820190508181036000830152611e3881611dfc565b9050919050565b7f45524332303a207472616e7366657220746f20746865207a65726f206164647260008201527f6573730000000000000000000000000000000000000000000000000000000000602082015250565b6000611e9b6023836116d2565b9150611ea682611e3f565b604082019050919050565b60006020820190508181036000830152611eca81611e8e565b9050919050565b7f45524332303a207472616e7366657220616d6f756e742065786365656473206260008201527f616c616e63650000000000000000000000000000000000000000000000000000602082015250565b6000611f2d6026836116d2565b9150611f3882611ed1565b604082019050919050565b60006020820190508181036000830152611f5c81611f20565b9050919050565b7f45524332303a206d696e7420746f20746865207a65726f206164647265737300600082015250565b6000611f99601f836116d2565b9150611fa482611f63565b602082019050919050565b60006020820190508181036000830152611fc881611f8c565b9050919050565b6000611fda826117ae565b91507fffffffffffffffffffffffffffffffffffffffffffffffffffffffffffffffff820361200c5761200b6119a5565b5b600182019050919050565b7f4e487b7100000000000000000000000000000000000000000000000000000000600052601260045260246000fd5b6000612051826117ae565b915061205c836117ae565b92508261206c5761206b612017565b5b828204905092915050565b7f4e487b7100000000000000000000000000000000000000000000000000000000600052604160045260246000fd5b60006120b1826117ae565b91506120bc836117ae565b9250828210156120cf576120ce6119a5565b5b828203905092915050565b60006120e5826117ae565b91506120f0836117ae565b925082612100576120ff612017565b5b828206905092915050565b7f4e487b7100000000000000000000000000000000000000000000000000000000600052603260045260246000fd5b7f45524332303a206275726e2066726f6d20746865207a65726f2061646472657360008201527f7300000000000000000000000000000000000000000000000000000000000000602082015250565b60006121966021836116d2565b91506121a18261213a565b604082019050919050565b600060208201905081810360008301526121c581612189565b9050919050565b7f45524332303a206275726e20616d6f756e7420657863656564732062616c616e60008201527f6365000000000000000000000000000000000000000000000000000000000000602082015250565b60006122286022836116d2565b9150612233826121cc565b604082019050919050565b600060208201905081810360008301526122578161221b565b905091905056fea2646970667358221220331a15c99ae6878a44013cef9e9629eac1cb1b8370c813cdbb57858ea42847ac64736f6c634300080f0033",
  "linkReferences": {},
  "deployedLinkReferences": {}
}